{
  "address": "0x2122c32556746D77541dC8f8b5c1D8D1E9fFf3Ba",
  "abi": [
    {
      "inputs": [
        {
          "internalType": "address",
          "name": "_account",
          "type": "address"
        },
        {
          "internalType": "address",
          "name": "_tokenAddress",
          "type": "address"
        }
      ],
      "name": "getERC20BalanceOf",
      "outputs": [
        {
          "internalType": "uint256",
          "name": "",
          "type": "uint256"
        }
      ],
      "stateMutability": "view",
      "type": "function"
    }
  ],
  "transactionHash": "0x47964fb694ec9c48129609d004a81a198ef0d25c30629602aafa26c88edad3f8",
  "args": [],
  "numDeployments": 2,
  "solcInputHash": "65e2193b98ced43fdb4be3618ffc0dd4",
  "bytecode": "0x608060405234801561001057600080fd5b50610275806100206000396000f3fe608060405234801561001057600080fd5b506004361061002a5760003560e01c806222fbfa1461002f575b600080fd5b6100496004803603810190610044919061011c565b61005f565b60405161005691906101ba565b60405180910390f35b60008173ffffffffffffffffffffffffffffffffffffffff166370a08231846040518263ffffffff1660e01b815260040161009a919061019f565b60206040518083038186803b1580156100b257600080fd5b505afa1580156100c6573d6000803e3d6000fd5b505050506040513d601f19601f820116820180604052508101906100ea9190610158565b905092915050565b60008135905061010181610211565b92915050565b60008151905061011681610228565b92915050565b6000806040838503121561012f57600080fd5b600061013d858286016100f2565b925050602061014e858286016100f2565b9150509250929050565b60006020828403121561016a57600080fd5b600061017884828501610107565b91505092915050565b61018a816101d5565b82525050565b61019981610207565b82525050565b60006020820190506101b46000830184610181565b92915050565b60006020820190506101cf6000830184610190565b92915050565b60006101e0826101e7565b9050919050565b600073ffffffffffffffffffffffffffffffffffffffff82169050919050565b6000819050919050565b61021a816101d5565b811461022557600080fd5b50565b61023181610207565b811461023c57600080fd5b5056fea2646970667358221220b019c7ecc2f3b3449b36e538f94ca8a33d4902f7b51f8462a5dce36728e5320864736f6c63430008040033",
  "devdoc": {
    "kind": "dev",
    "methods": {},
    "version": 1
  },
  "userdoc": {
    "kind": "user",
    "methods": {},
    "version": 1
  },
  "storageLayout": {
    "storage": [],
    "types": null
  }
}